:020000040000FA
:060000000A128A110C280F
:10000800FE00030EF7000A08F8000A128A112D28CC
:100018000A128A110F2883133030FD000030FE00C9
:10002800EB30FF00203084000A128A11DC200A120B
:100038008A110A128A110D210A128A11FC00F00194
:10004800F101F201F301F401F50183010A128A11A9
:1000580071280B1D3028312843286430831203137C
:100068008100091C382839283E280910891470088D
:100078008700422809148910710887000B11831220
:1000880003130C1F482849285728FC01FC0A1E089E
:10009800F400F2001E0E0F39F30072080F39F20057
:1000A800831203130C130B1C5A285B286928061C9F
:1000B8005E285F2863280130F6007608F507861C5D
:1000C8006628672869280130F5020B1078088A002D
:1000D800770E8300FE0E7E0E09000A128A11A620F2
:1000E8000A128A110A128A11FB200A128A110A12AC
:1000F8008A1106210A128A117C080A128A11C02064
:100108000A128A117308203E840083130008FB003A
:100118007B08F0007208203E84000008FB007B0882
:10012800F100750883120313880074087502031818
:100138009E289F28A12887178028871380280A12BD
:100148008A110C285530831203139F008316031756
:10015800880183160313850103308600831603176D
:100168008901831603138701880189018312031308
:100178008701880189010800FA00E8308B008312A2
:1001880003130C13831603130C179F137A03031D11
:10019800CE28CF28D7280630F900F90BD12800003F
:1001A800831203139F1408007E088A007F088200C8
:1001B8000A128A11D8200A128A118000840A0408B7
:1001C8007D0603190034FF0A0319FE0ADC283F34B0
:1001D80006345B344F3466346D347D3407347F34F1
:1001E8006F3477347C3439345E3479347134843004
:1001F8008316031381006430831203138100E830EF
:100208008B000800E8308B0083160313161496142D
:0402180008000134A5
:04400E00D120FF3F7F
:00000001FF
