:020000040000FA
:060000000A128A11EC2F28
:100D7A0080344034203410340834043402340134CA
:100D8A0080344034203410340834043402340134BA
:100D9A007E088A007F0882000A128A11CD260A126A
:100DAA008A118000840A04087D0603190034FF0AA8
:100DBA000319FE0AD12E08307706031DE52EE62E0A
:100DCA00EA2E013083120313860008307606031DCB
:100DDA00EF2EF02EF42E0230831203138600080041
:100DEA0083160317880189018316031309108910D2
:100DFA0009118312031389018514051585158316B4
:100E0A000313061086108312031386018316031335
:100E1A000710871007118711071287120713871304
:100E2A00831203138701831603130810881008110D
:100E3A008811081288120813881383120313880171
:100E4A0008000A128A11F5260A128A11831203135C
:100E5A000518302F312F2B2F8230F500DD30F400AA
:100E6A00F40B352FF50B352F3A2F83120313051C7C
:100E7A003F2F402F2B2F0A128A1157270A128A1145
:100E8A000130F0000030F1000A128A119A270A1282
:100E9A008A110A128A11E0260A128A112B2F0A12C3
:100EAA008A110028F701F6017608203E8400831390
:100EBA0000088312031388007708283E840000087C
:100ECA00870009140330F2008A30F1005530F0002F
:100EDA00F00B6D2FF10B6D2FF20B6D2F742F831208
:100EEA000313091089140330F2008A30F1005530D7
:100EFA00F000F00B7E2FF10B7E2FF20B7E2F852F49
:100F0A0083120313891009150330F2008A30F100A5
:100F1A005530F000F00B8F2FF10B8F2FF20B8F2F24
:100F2A00962F831203130911080070037104031D1D
:100F3A009F2FA02FEB2F831203138518A52FA62FFF
:100F4A00C62F8230F300DD30F200F20BAA2FF30B2A
:100F5A00AA2FAF2F83120313851CB42FB52FC62FC8
:100F6A000130F2007208F7077708283E84008313DD
:100F7A000008870008307706031DC42FC52FC62F27
:100F8A00EB2F0519C92FCA2FA02F8230F300DD30AD
:100F9A00F200F20BCE2FF30BCE2FD32F83120313B3
:100FAA00051DD82FD92FA02F0130F2007208F6079D
:100FBA007608203E840083130008880008307606ED
:100FCA00031DE82FE92FEA2FEB2FA02F0800831328
:100FDA003030FD000630FE00BD30FF0020308400B6
:100FEA000A128A11D1260A128A11F601F70183011F
:060FFA000A128A11262FE5
:04400E00D120FF3F7F
:00000001FF
